{
  "_format": "hh-sol-artifact-1",
  "contractName": "Raider",
  "sourceName": "contracts/Raider.sol",
  "abi": [
    {
      "inputs": [],
      "stateMutability": "nonpayable",
      "type": "constructor"
    },
    {
      "anonymous": false,
      "inputs": [
        {
          "indexed": true,
          "internalType": "uint256",
          "name": "discord_id",
          "type": "uint256"
        },
        {
          "indexed": true,
          "internalType": "address",
          "name": "user",
          "type": "address"
        },
        {
          "indexed": true,
          "internalType": "uint256",
          "name": "nft_id",
          "type": "uint256"
        },
        {
          "indexed": false,
          "internalType": "string",
          "name": "achievement",
          "type": "string"
        }
      ],
      "name": "AchievementMinted",
      "type": "event"
    },
    {
      "anonymous": false,
      "inputs": [
        {
          "indexed": true,
          "internalType": "address",
          "name": "owner",
          "type": "address"
        },
        {
          "indexed": true,
          "internalType": "address",
          "name": "approved",
          "type": "address"
        },
        {
          "indexed": true,
          "internalType": "uint256",
          "name": "tokenId",
          "type": "uint256"
        }
      ],
      "name": "Approval",
      "type": "event"
    },
    {
      "anonymous": false,
      "inputs": [
        {
          "indexed": true,
          "internalType": "address",
          "name": "owner",
          "type": "address"
        },
        {
          "indexed": true,
          "internalType": "address",
          "name": "operator",
          "type": "address"
        },
        {
          "indexed": false,
          "internalType": "bool",
          "name": "approved",
          "type": "bool"
        }
      ],
      "name": "ApprovalForAll",
      "type": "event"
    },
    {
      "anonymous": false,
      "inputs": [
        {
          "indexed": true,
          "internalType": "uint256",
          "name": "discord_id",
          "type": "uint256"
        },
        {
          "indexed": false,
          "internalType": "string",
          "name": "achievement",
          "type": "string"
        }
      ],
      "name": "NewAchievement",
      "type": "event"
    },
    {
      "anonymous": false,
      "inputs": [
        {
          "indexed": true,
          "internalType": "address",
          "name": "previousOwner",
          "type": "address"
        },
        {
          "indexed": true,
          "internalType": "address",
          "name": "newOwner",
          "type": "address"
        }
      ],
      "name": "OwnershipTransferred",
      "type": "event"
    },
    {
      "anonymous": false,
      "inputs": [
        {
          "indexed": true,
          "internalType": "uint256",
          "name": "discord_id",
          "type": "uint256"
        },
        {
          "indexed": true,
          "internalType": "address",
          "name": "user",
          "type": "address"
        },
        {
          "indexed": true,
          "internalType": "uint256",
          "name": "nft_id",
          "type": "uint256"
        }
      ],
      "name": "RaiderMinted",
      "type": "event"
    },
    {
      "anonymous": false,
      "inputs": [
        {
          "indexed": true,
          "internalType": "address",
          "name": "from",
          "type": "address"
        },
        {
          "indexed": true,
          "internalType": "address",
          "name": "to",
          "type": "address"
        },
        {
          "indexed": true,
          "internalType": "uint256",
          "name": "tokenId",
          "type": "uint256"
        }
      ],
      "name": "Transfer",
      "type": "event"
    },
    {
      "inputs": [
        {
          "internalType": "uint256",
          "name": "",
          "type": "uint256"
        }
      ],
      "name": "Raiders",
      "outputs": [
        {
          "internalType": "address",
          "name": "_address",
          "type": "address"
        },
        {
          "internalType": "uint256",
          "name": "raider_id",
          "type": "uint256"
        },
        {
          "internalType": "string",
          "name": "primary_skill",
          "type": "string"
        },
        {
          "internalType": "string",
          "name": "secondary_skill",
          "type": "string"
        }
      ],
      "stateMutability": "view",
      "type": "function"
    },
    {
      "inputs": [],
      "name": "achievement_id",
      "outputs": [
        {
          "internalType": "uint256",
          "name": "",
          "type": "uint256"
        }
      ],
      "stateMutability": "view",
      "type": "function"
    },
    {
      "inputs": [
        {
          "internalType": "uint256",
          "name": "discord_id",
          "type": "uint256"
        },
        {
          "internalType": "string",
          "name": "achievement",
          "type": "string"
        }
      ],
      "name": "addAchievement",
      "outputs": [],
      "stateMutability": "nonpayable",
      "type": "function"
    },
    {
      "inputs": [
        {
          "internalType": "address",
          "name": "to",
          "type": "address"
        },
        {
          "internalType": "uint256",
          "name": "tokenId",
          "type": "uint256"
        }
      ],
      "name": "approve",
      "outputs": [],
      "stateMutability": "nonpayable",
      "type": "function"
    },
    {
      "inputs": [
        {
          "internalType": "address",
          "name": "owner",
          "type": "address"
        }
      ],
      "name": "balanceOf",
      "outputs": [
        {
          "internalType": "uint256",
          "name": "",
          "type": "uint256"
        }
      ],
      "stateMutability": "view",
      "type": "function"
    },
    {
      "inputs": [
        {
          "internalType": "uint256",
          "name": "nft_id",
          "type": "uint256"
        },
        {
          "internalType": "string",
          "name": "new_uri",
          "type": "string"
        }
      ],
      "name": "changeAvatar",
      "outputs": [],
      "stateMutability": "nonpayable",
      "type": "function"
    },
    {
      "inputs": [
        {
          "internalType": "uint256",
          "name": "discord_id",
          "type": "uint256"
        },
        {
          "internalType": "string",
          "name": "primary",
          "type": "string"
        },
        {
          "internalType": "string",
          "name": "secondary",
          "type": "string"
        },
        {
          "internalType": "address",
          "name": "_address",
          "type": "address"
        },
        {
          "internalType": "string",
          "name": "uri",
          "type": "string"
        }
      ],
      "name": "createProfile",
      "outputs": [],
      "stateMutability": "nonpayable",
      "type": "function"
    },
    {
      "inputs": [
        {
          "internalType": "uint256",
          "name": "tokenId",
          "type": "uint256"
        }
      ],
      "name": "getApproved",
      "outputs": [
        {
          "internalType": "address",
          "name": "",
          "type": "address"
        }
      ],
      "stateMutability": "view",
      "type": "function"
    },
    {
      "inputs": [],
      "name": "id",
      "outputs": [
        {
          "internalType": "uint256",
          "name": "",
          "type": "uint256"
        }
      ],
      "stateMutability": "view",
      "type": "function"
    },
    {
      "inputs": [
        {
          "internalType": "address",
          "name": "owner",
          "type": "address"
        },
        {
          "internalType": "address",
          "name": "operator",
          "type": "address"
        }
      ],
      "name": "isApprovedForAll",
      "outputs": [
        {
          "internalType": "bool",
          "name": "",
          "type": "bool"
        }
      ],
      "stateMutability": "view",
      "type": "function"
    },
    {
      "inputs": [
        {
          "internalType": "uint256",
          "name": "discord_id",
          "type": "uint256"
        },
        {
          "internalType": "string",
          "name": "achievement",
          "type": "string"
        },
        {
          "internalType": "string",
          "name": "uri",
          "type": "string"
        }
      ],
      "name": "mintAchievement",
      "outputs": [],
      "stateMutability": "nonpayable",
      "type": "function"
    },
    {
      "inputs": [
        {
          "internalType": "uint256",
          "name": "discord_id",
          "type": "uint256"
        },
        {
          "internalType": "string",
          "name": "uri",
          "type": "string"
        }
      ],
      "name": "mintRaider",
      "outputs": [],
      "stateMutability": "nonpayable",
      "type": "function"
    },
    {
      "inputs": [],
      "name": "name",
      "outputs": [
        {
          "internalType": "string",
          "name": "",
          "type": "string"
        }
      ],
      "stateMutability": "view",
      "type": "function"
    },
    {
      "inputs": [],
      "name": "owner",
      "outputs": [
        {
          "internalType": "address",
          "name": "",
          "type": "address"
        }
      ],
      "stateMutability": "view",
      "type": "function"
    },
    {
      "inputs": [
        {
          "internalType": "uint256",
          "name": "tokenId",
          "type": "uint256"
        }
      ],
      "name": "ownerOf",
      "outputs": [
        {
          "internalType": "address",
          "name": "",
          "type": "address"
        }
      ],
      "stateMutability": "view",
      "type": "function"
    },
    {
      "inputs": [],
      "name": "renounceOwnership",
      "outputs": [],
      "stateMutability": "nonpayable",
      "type": "function"
    },
    {
      "inputs": [
        {
          "internalType": "address",
          "name": "from",
          "type": "address"
        },
        {
          "internalType": "address",
          "name": "to",
          "type": "address"
        },
        {
          "internalType": "uint256",
          "name": "tokenId",
          "type": "uint256"
        }
      ],
      "name": "safeTransferFrom",
      "outputs": [],
      "stateMutability": "nonpayable",
      "type": "function"
    },
    {
      "inputs": [
        {
          "internalType": "address",
          "name": "from",
          "type": "address"
        },
        {
          "internalType": "address",
          "name": "to",
          "type": "address"
        },
        {
          "internalType": "uint256",
          "name": "tokenId",
          "type": "uint256"
        },
        {
          "internalType": "bytes",
          "name": "_data",
          "type": "bytes"
        }
      ],
      "name": "safeTransferFrom",
      "outputs": [],
      "stateMutability": "nonpayable",
      "type": "function"
    },
    {
      "inputs": [
        {
          "internalType": "address",
          "name": "operator",
          "type": "address"
        },
        {
          "internalType": "bool",
          "name": "approved",
          "type": "bool"
        }
      ],
      "name": "setApprovalForAll",
      "outputs": [],
      "stateMutability": "nonpayable",
      "type": "function"
    },
    {
      "inputs": [
        {
          "internalType": "bytes4",
          "name": "interfaceId",
          "type": "bytes4"
        }
      ],
      "name": "supportsInterface",
      "outputs": [
        {
          "internalType": "bool",
          "name": "",
          "type": "bool"
        }
      ],
      "stateMutability": "view",
      "type": "function"
    },
    {
      "inputs": [],
      "name": "symbol",
      "outputs": [
        {
          "internalType": "string",
          "name": "",
          "type": "string"
        }
      ],
      "stateMutability": "view",
      "type": "function"
    },
    {
      "inputs": [
        {
          "internalType": "uint256",
          "name": "tokenId",
          "type": "uint256"
        }
      ],
      "name": "tokenURI",
      "outputs": [
        {
          "internalType": "string",
          "name": "",
          "type": "string"
        }
      ],
      "stateMutability": "view",
      "type": "function"
    },
    {
      "inputs": [
        {
          "internalType": "address",
          "name": "from",
          "type": "address"
        },
        {
          "internalType": "address",
          "name": "to",
          "type": "address"
        },
        {
          "internalType": "uint256",
          "name": "tokenId",
          "type": "uint256"
        }
      ],
      "name": "transferFrom",
      "outputs": [],
      "stateMutability": "nonpayable",
      "type": "function"
    },
    {
      "inputs": [
        {
          "internalType": "address",
          "name": "newOwner",
          "type": "address"
        }
      ],
      "name": "transferOwnership",
      "outputs": [],
      "stateMutability": "nonpayable",
      "type": "function"
    }
  ],
  "bytecode": "0x608060405260016009556001600a553480156200001b57600080fd5b506040518060400160405280601481526020017f526169646572204775696c6420417661746172730000000000000000000000008152506040518060400160405280600681526020017f52414944455200000000000000000000000000000000000000000000000000008152508160009080519060200190620000a0929190620001b0565b508060019080519060200190620000b9929190620001b0565b505050620000dc620000d0620000e260201b60201c565b620000ea60201b60201c565b620002c5565b600033905090565b6000600760009054906101000a900473ffffffffffffffffffffffffffffffffffffffff16905081600760006101000a81548173ffffffffffffffffffffffffffffffffffffffff021916908373ffffffffffffffffffffffffffffffffffffffff1602179055508173ffffffffffffffffffffffffffffffffffffffff168173ffffffffffffffffffffffffffffffffffffffff167f8be0079c531659141344cd1fd0a4f28419497f9722a3daafe3b4186f6b6457e060405160405180910390a35050565b828054620001be906200028f565b90600052602060002090601f016020900481019282620001e257600085556200022e565b82601f10620001fd57805160ff19168380011785556200022e565b828001600101855582156200022e579182015b828111156200022d57825182559160200191906001019062000210565b5b5090506200023d919062000241565b5090565b5b808211156200025c57600081600090555060010162000242565b5090565b7f4e487b7100000000000000000000000000000000000000000000000000000000600052602260045260246000fd5b60006002820490506001821680620002a857607f821691505b60208210811415620002bf57620002be62000260565b5b50919050565b613d6680620002d56000396000f3fe608060405234801561001057600080fd5b50600436106101585760003560e01c806395d89b41116100c3578063d776f01e1161007c578063d776f01e146103b1578063dd045d02146103e4578063e985e9c514610400578063f2fde38b14610430578063f6c320481461044c578063fadf96581461046857610158565b806395d89b41146102ef578063a22cb4651461030d578063af640d0f14610329578063b88d4fde14610347578063c16a2c8614610363578063c87b56dd1461038157610158565b806342842e0e1161011557806342842e0e1461022f57806355a651381461024b5780636352211e1461026757806370a0823114610297578063715018a6146102c75780638da5cb5b146102d157610158565b806301ffc9a71461015d57806302cc08d61461018d57806306fdde03146101a9578063081812fc146101c7578063095ea7b3146101f757806323b872dd14610213575b600080fd5b610177600480360381019061017291906127f2565b610484565b604051610184919061283a565b60405180910390f35b6101a760048036038101906101a291906128f0565b610566565b005b6101b1610673565b6040516101be91906129e9565b60405180910390f35b6101e160048036038101906101dc9190612a0b565b610705565b6040516101ee9190612a79565b60405180910390f35b610211600480360381019061020c9190612ac0565b61078a565b005b61022d60048036038101906102289190612b00565b6108a2565b005b61024960048036038101906102449190612b00565b610902565b005b610265600480360381019061026091906128f0565b610922565b005b610281600480360381019061027c9190612a0b565b610ae7565b60405161028e9190612a79565b60405180910390f35b6102b160048036038101906102ac9190612b53565b610b99565b6040516102be9190612b8f565b60405180910390f35b6102cf610c51565b005b6102d9610cd9565b6040516102e69190612a79565b60405180910390f35b6102f7610d03565b60405161030491906129e9565b60405180910390f35b61032760048036038101906103229190612bd6565b610d95565b005b610331610dab565b60405161033e9190612b8f565b60405180910390f35b610361600480360381019061035c9190612d46565b610db1565b005b61036b610e13565b6040516103789190612b8f565b60405180910390f35b61039b60048036038101906103969190612a0b565b610e19565b6040516103a891906129e9565b60405180910390f35b6103cb60048036038101906103c69190612a0b565b610f6b565b6040516103db9493929190612dc9565b60405180910390f35b6103fe60048036038101906103f991906128f0565b6110cb565b005b61041a60048036038101906104159190612e1c565b61119a565b604051610427919061283a565b60405180910390f35b61044a60048036038101906104459190612b53565b61122e565b005b61046660048036038101906104619190612e5c565b611326565b005b610482600480360381019061047d9190612ef1565b61151c565b005b60007f80ac58cd000000000000000000000000000000000000000000000000000000007bffffffffffffffffffffffffffffffffffffffffffffffffffffffff1916827bffffffffffffffffffffffffffffffffffffffffffffffffffffffff1916148061054f57507f5b5e139f000000000000000000000000000000000000000000000000000000007bffffffffffffffffffffffffffffffffffffffffffffffffffffffff1916827bffffffffffffffffffffffffffffffffffffffffffffffffffffffff1916145b8061055f575061055e82611764565b5b9050919050565b61056e6117ce565b73ffffffffffffffffffffffffffffffffffffffff1661058c610cd9565b73ffffffffffffffffffffffffffffffffffffffff16146105e2576040517f08c379a00000000000000000000000000000000000000000000000000000000081526004016105d990613019565b60405180910390fd5b60086000848152602001908152602001600020600401828290918060018154018082558091505060019003906000526020600020016000909192909192909192909192509190610633929190612500565b50827f52efc8db2469863aac5faa978b3905eafb5c0c8876ac7f66ce1402fdc2549e168383604051610666929190613066565b60405180910390a2505050565b606060008054610682906130b9565b80601f01602080910402602001604051908101604052809291908181526020018280546106ae906130b9565b80156106fb5780601f106106d0576101008083540402835291602001916106fb565b820191906000526020600020905b8154815290600101906020018083116106de57829003601f168201915b5050505050905090565b6000610710826117d6565b61074f576040517f08c379a00000000000000000000000000000000000000000000000000000000081526004016107469061315d565b60405180910390fd5b6004600083815260200190815260200160002060009054906101000a900473ffffffffffffffffffffffffffffffffffffffff169050919050565b600061079582610ae7565b90508073ffffffffffffffffffffffffffffffffffffffff168373ffffffffffffffffffffffffffffffffffffffff161415610806576040517f08c379a00000000000000000000000000000000000000000000000000000000081526004016107fd906131ef565b60405180910390fd5b8073ffffffffffffffffffffffffffffffffffffffff166108256117ce565b73ffffffffffffffffffffffffffffffffffffffff16148061085457506108538161084e6117ce565b61119a565b5b610893576040517f08c379a000000000000000000000000000000000000000000000000000000000815260040161088a90613281565b60405180910390fd5b61089d8383611842565b505050565b6108b36108ad6117ce565b826118fb565b6108f2576040517f08c379a00000000000000000000000000000000000000000000000000000000081526004016108e990613313565b60405180910390fd5b6108fd8383836119d9565b505050565b61091d83838360405180602001604052806000815250610db1565b505050565b61092a6117ce565b73ffffffffffffffffffffffffffffffffffffffff16610948610cd9565b73ffffffffffffffffffffffffffffffffffffffff161461099e576040517f08c379a000000000000000000000000000000000000000000000000000000000815260040161099590613019565b60405180910390fd5b60095460086000858152602001908152602001600020600101819055506109fd6008600085815260200190815260200160002060000160009054906101000a900473ffffffffffffffffffffffffffffffffffffffff16600954611c40565b610a4d60095483838080601f016020809104026020016040519081016040528093929190818152602001838380828437600081840152601f19601f82011690508083019250505050505050611e1a565b6009546008600085815260200190815260200160002060000160009054906101000a900473ffffffffffffffffffffffffffffffffffffffff1673ffffffffffffffffffffffffffffffffffffffff16847fa2af2de2e31dddf092ba96021d5095b0e5330e17394a3db7ad2ac20ac8d9619b60405160405180910390a460096000815480929190610add90613362565b9190505550505050565b6000806002600084815260200190815260200160002060009054906101000a900473ffffffffffffffffffffffffffffffffffffffff169050600073ffffffffffffffffffffffffffffffffffffffff168173ffffffffffffffffffffffffffffffffffffffff161415610b90576040517f08c379a0000000000000000000000000000000000000000000000000000000008152600401610b879061341d565b60405180910390fd5b80915050919050565b60008073ffffffffffffffffffffffffffffffffffffffff168273ffffffffffffffffffffffffffffffffffffffff161415610c0a576040517f08c379a0000000000000000000000000000000000000000000000000000000008152600401610c01906134af565b60405180910390fd5b600360008373ffffffffffffffffffffffffffffffffffffffff1673ffffffffffffffffffffffffffffffffffffffff168152602001908152602001600020549050919050565b610c596117ce565b73ffffffffffffffffffffffffffffffffffffffff16610c77610cd9565b73ffffffffffffffffffffffffffffffffffffffff1614610ccd576040517f08c379a0000000000000000000000000000000000000000000000000000000008152600401610cc490613019565b60405180910390fd5b610cd76000611e8e565b565b6000600760009054906101000a900473ffffffffffffffffffffffffffffffffffffffff16905090565b606060018054610d12906130b9565b80601f0160208091040260200160405190810160405280929190818152602001828054610d3e906130b9565b8015610d8b5780601f10610d6057610100808354040283529160200191610d8b565b820191906000526020600020905b815481529060010190602001808311610d6e57829003601f168201915b5050505050905090565b610da7610da06117ce565b8383611f54565b5050565b60095481565b610dc2610dbc6117ce565b836118fb565b610e01576040517f08c379a0000000000000000000000000000000000000000000000000000000008152600401610df890613313565b60405180910390fd5b610e0d848484846120c1565b50505050565b600a5481565b6060610e24826117d6565b610e63576040517f08c379a0000000000000000000000000000000000000000000000000000000008152600401610e5a90613541565b60405180910390fd5b6000600660008481526020019081526020016000208054610e83906130b9565b80601f0160208091040260200160405190810160405280929190818152602001828054610eaf906130b9565b8015610efc5780601f10610ed157610100808354040283529160200191610efc565b820191906000526020600020905b815481529060010190602001808311610edf57829003601f168201915b505050505090506000610f0d61211d565b9050600081511415610f23578192505050610f66565b600082511115610f58578082604051602001610f4092919061359d565b60405160208183030381529060405292505050610f66565b610f6184612134565b925050505b919050565b60086020528060005260406000206000915090508060000160009054906101000a900473ffffffffffffffffffffffffffffffffffffffff1690806001015490806002018054610fba906130b9565b80601f0160208091040260200160405190810160405280929190818152602001828054610fe6906130b9565b80156110335780601f1061100857610100808354040283529160200191611033565b820191906000526020600020905b81548152906001019060200180831161101657829003601f168201915b505050505090806003018054611048906130b9565b80601f0160208091040260200160405190810160405280929190818152602001828054611074906130b9565b80156110c15780601f10611096576101008083540402835291602001916110c1565b820191906000526020600020905b8154815290600101906020018083116110a457829003601f168201915b5050505050905084565b6110d36117ce565b73ffffffffffffffffffffffffffffffffffffffff166110f1610cd9565b73ffffffffffffffffffffffffffffffffffffffff1614611147576040517f08c379a000000000000000000000000000000000000000000000000000000000815260040161113e90613019565b60405180910390fd5b6111958383838080601f016020809104026020016040519081016040528093929190818152602001838380828437600081840152601f19601f82011690508083019250505050505050611e1a565b505050565b6000600560008473ffffffffffffffffffffffffffffffffffffffff1673ffffffffffffffffffffffffffffffffffffffff16815260200190815260200160002060008373ffffffffffffffffffffffffffffffffffffffff1673ffffffffffffffffffffffffffffffffffffffff16815260200190815260200160002060009054906101000a900460ff16905092915050565b6112366117ce565b73ffffffffffffffffffffffffffffffffffffffff16611254610cd9565b73ffffffffffffffffffffffffffffffffffffffff16146112aa576040517f08c379a00000000000000000000000000000000000000000000000000000000081526004016112a190613019565b60405180910390fd5b600073ffffffffffffffffffffffffffffffffffffffff168173ffffffffffffffffffffffffffffffffffffffff16141561131a576040517f08c379a000000000000000000000000000000000000000000000000000000000815260040161131190613633565b60405180910390fd5b61132381611e8e565b50565b61132e6117ce565b73ffffffffffffffffffffffffffffffffffffffff1661134c610cd9565b73ffffffffffffffffffffffffffffffffffffffff16146113a2576040517f08c379a000000000000000000000000000000000000000000000000000000000815260040161139990613019565b60405180910390fd5b60086000868152602001908152602001600020600501600a5490806001815401808255809150506001900390600052602060002001600090919091909150556114236008600087815260200190815260200160002060000160009054906101000a900473ffffffffffffffffffffffffffffffffffffffff16600a54611c40565b611473600a5483838080601f016020809104026020016040519081016040528093929190818152602001838380828437600081840152601f19601f82011690508083019250505050505050611e1a565b600a546008600087815260200190815260200160002060000160009054906101000a900473ffffffffffffffffffffffffffffffffffffffff1673ffffffffffffffffffffffffffffffffffffffff16867f1b0283a568fea6be4a4e194f6fe01d5a79e3faadccd1c9a0267ca6adc7438bb987876040516114f5929190613066565b60405180910390a4600a600081548092919061151090613362565b91905055505050505050565b6115246117ce565b73ffffffffffffffffffffffffffffffffffffffff16611542610cd9565b73ffffffffffffffffffffffffffffffffffffffff1614611598576040517f08c379a000000000000000000000000000000000000000000000000000000000815260040161158f90613019565b60405180910390fd5b6115a0612586565b87878080601f016020809104026020016040519081016040528093929190818152602001838380828437600081840152601f19601f82011690508083019250505050505050816040018190525085858080601f016020809104026020016040519081016040528093929190818152602001838380828437600081840152601f19601f82011690508083019250505050505050816060018190525083816000019073ffffffffffffffffffffffffffffffffffffffff16908173ffffffffffffffffffffffffffffffffffffffff168152505080600860008b815260200190815260200160002060008201518160000160006101000a81548173ffffffffffffffffffffffffffffffffffffffff021916908373ffffffffffffffffffffffffffffffffffffffff1602179055506020820151816001015560408201518160020190805190602001906116f39291906125d2565b5060608201518160030190805190602001906117109291906125d2565b50608082015181600401908051906020019061172d929190612658565b5060a082015181600501908051906020019061174a9291906126b8565b50905050611759898484610922565b505050505050505050565b60007f01ffc9a7000000000000000000000000000000000000000000000000000000007bffffffffffffffffffffffffffffffffffffffffffffffffffffffff1916827bffffffffffffffffffffffffffffffffffffffffffffffffffffffff1916149050919050565b600033905090565b60008073ffffffffffffffffffffffffffffffffffffffff166002600084815260200190815260200160002060009054906101000a900473ffffffffffffffffffffffffffffffffffffffff1673ffffffffffffffffffffffffffffffffffffffff1614159050919050565b816004600083815260200190815260200160002060006101000a81548173ffffffffffffffffffffffffffffffffffffffff021916908373ffffffffffffffffffffffffffffffffffffffff160217905550808273ffffffffffffffffffffffffffffffffffffffff166118b583610ae7565b73ffffffffffffffffffffffffffffffffffffffff167f8c5be1e5ebec7d5bd14f71427d1e84f3dd0314c0f7b2291e5b200ac8c7c3b92560405160405180910390a45050565b6000611906826117d6565b611945576040517f08c379a000000000000000000000000000000000000000000000000000000000815260040161193c906136c5565b60405180910390fd5b600061195083610ae7565b90508073ffffffffffffffffffffffffffffffffffffffff168473ffffffffffffffffffffffffffffffffffffffff1614806119bf57508373ffffffffffffffffffffffffffffffffffffffff166119a784610705565b73ffffffffffffffffffffffffffffffffffffffff16145b806119d057506119cf818561119a565b5b91505092915050565b8273ffffffffffffffffffffffffffffffffffffffff166119f982610ae7565b73ffffffffffffffffffffffffffffffffffffffff1614611a4f576040517f08c379a0000000000000000000000000000000000000000000000000000000008152600401611a4690613757565b60405180910390fd5b600073ffffffffffffffffffffffffffffffffffffffff168273ffffffffffffffffffffffffffffffffffffffff161415611abf576040517f08c379a0000000000000000000000000000000000000000000000000000000008152600401611ab6906137e9565b60405180910390fd5b611aca8383836121db565b611ad5600082611842565b6001600360008573ffffffffffffffffffffffffffffffffffffffff1673ffffffffffffffffffffffffffffffffffffffff1681526020019081526020016000206000828254611b259190613809565b925050819055506001600360008473ffffffffffffffffffffffffffffffffffffffff1673ffffffffffffffffffffffffffffffffffffffff1681526020019081526020016000206000828254611b7c919061383d565b92505081905550816002600083815260200190815260200160002060006101000a81548173ffffffffffffffffffffffffffffffffffffffff021916908373ffffffffffffffffffffffffffffffffffffffff160217905550808273ffffffffffffffffffffffffffffffffffffffff168473ffffffffffffffffffffffffffffffffffffffff167fddf252ad1be2c89b69c2b068fc378daa952ba7f163c4a11628f55a4df523b3ef60405160405180910390a4611c3b8383836121e0565b505050565b600073ffffffffffffffffffffffffffffffffffffffff168273ffffffffffffffffffffffffffffffffffffffff161415611cb0576040517f08c379a0000000000000000000000000000000000000000000000000000000008152600401611ca7906138df565b60405180910390fd5b611cb9816117d6565b15611cf9576040517f08c379a0000000000000000000000000000000000000000000000000000000008152600401611cf09061394b565b60405180910390fd5b611d05600083836121db565b6001600360008473ffffffffffffffffffffffffffffffffffffffff1673ffffffffffffffffffffffffffffffffffffffff1681526020019081526020016000206000828254611d55919061383d565b92505081905550816002600083815260200190815260200160002060006101000a81548173ffffffffffffffffffffffffffffffffffffffff021916908373ffffffffffffffffffffffffffffffffffffffff160217905550808273ffffffffffffffffffffffffffffffffffffffff16600073ffffffffffffffffffffffffffffffffffffffff167fddf252ad1be2c89b69c2b068fc378daa952ba7f163c4a11628f55a4df523b3ef60405160405180910390a4611e16600083836121e0565b5050565b611e23826117d6565b611e62576040517f08c379a0000000000000000000000000000000000000000000000000000000008152600401611e59906139dd565b60405180910390fd5b80600660008481526020019081526020016000209080519060200190611e899291906125d2565b505050565b6000600760009054906101000a900473ffffffffffffffffffffffffffffffffffffffff16905081600760006101000a81548173ffffffffffffffffffffffffffffffffffffffff021916908373ffffffffffffffffffffffffffffffffffffffff1602179055508173ffffffffffffffffffffffffffffffffffffffff168173ffffffffffffffffffffffffffffffffffffffff167f8be0079c531659141344cd1fd0a4f28419497f9722a3daafe3b4186f6b6457e060405160405180910390a35050565b8173ffffffffffffffffffffffffffffffffffffffff168373ffffffffffffffffffffffffffffffffffffffff161415611fc3576040517f08c379a0000000000000000000000000000000000000000000000000000000008152600401611fba90613a49565b60405180910390fd5b80600560008573ffffffffffffffffffffffffffffffffffffffff1673ffffffffffffffffffffffffffffffffffffffff16815260200190815260200160002060008473ffffffffffffffffffffffffffffffffffffffff1673ffffffffffffffffffffffffffffffffffffffff16815260200190815260200160002060006101000a81548160ff0219169083151502179055508173ffffffffffffffffffffffffffffffffffffffff168373ffffffffffffffffffffffffffffffffffffffff167f17307eab39ab6107e8899845ad3d59bd9653f200f220920489ca2b5937696c31836040516120b4919061283a565b60405180910390a3505050565b6120cc8484846119d9565b6120d8848484846121e5565b612117576040517f08c379a000000000000000000000000000000000000000000000000000000000815260040161210e90613adb565b60405180910390fd5b50505050565b606060405180602001604052806000815250905090565b606061213f826117d6565b61217e576040517f08c379a000000000000000000000000000000000000000000000000000000000815260040161217590613b6d565b60405180910390fd5b600061218861211d565b905060008151116121a857604051806020016040528060008152506121d3565b806121b28461237c565b6040516020016121c392919061359d565b6040516020818303038152906040525b915050919050565b505050565b505050565b60006122068473ffffffffffffffffffffffffffffffffffffffff166124dd565b1561236f578373ffffffffffffffffffffffffffffffffffffffff1663150b7a0261222f6117ce565b8786866040518563ffffffff1660e01b81526004016122519493929190613be2565b602060405180830381600087803b15801561226b57600080fd5b505af192505050801561229c57506040513d601f19601f820116820180604052508101906122999190613c43565b60015b61231f573d80600081146122cc576040519150601f19603f3d011682016040523d82523d6000602084013e6122d1565b606091505b50600081511415612317576040517f08c379a000000000000000000000000000000000000000000000000000000000815260040161230e90613adb565b60405180910390fd5b805181602001fd5b63150b7a0260e01b7bffffffffffffffffffffffffffffffffffffffffffffffffffffffff1916817bffffffffffffffffffffffffffffffffffffffffffffffffffffffff191614915050612374565b600190505b949350505050565b606060008214156123c4576040518060400160405280600181526020017f300000000000000000000000000000000000000000000000000000000000000081525090506124d8565b600082905060005b600082146123f65780806123df90613362565b915050600a826123ef9190613c9f565b91506123cc565b60008167ffffffffffffffff81111561241257612411612c1b565b5b6040519080825280601f01601f1916602001820160405280156124445781602001600182028036833780820191505090505b5090505b600085146124d15760018261245d9190613809565b9150600a8561246c9190613cd0565b6030612478919061383d565b60f81b81838151811061248e5761248d613d01565b5b60200101907effffffffffffffffffffffffffffffffffffffffffffffffffffffffffffff1916908160001a905350600a856124ca9190613c9f565b9450612448565b8093505050505b919050565b6000808273ffffffffffffffffffffffffffffffffffffffff163b119050919050565b82805461250c906130b9565b90600052602060002090601f01602090048101928261252e5760008555612575565b82601f1061254757803560ff1916838001178555612575565b82800160010185558215612575579182015b82811115612574578235825591602001919060010190612559565b5b5090506125829190612705565b5090565b6040518060c00160405280600073ffffffffffffffffffffffffffffffffffffffff16815260200160008152602001606081526020016060815260200160608152602001606081525090565b8280546125de906130b9565b90600052602060002090601f0160209004810192826126005760008555612647565b82601f1061261957805160ff1916838001178555612647565b82800160010185558215612647579182015b8281111561264657825182559160200191906001019061262b565b5b5090506126549190612705565b5090565b8280548282559060005260206000209081019282156126a7579160200282015b828111156126a65782518290805190602001906126969291906125d2565b5091602001919060010190612678565b5b5090506126b49190612722565b5090565b8280548282559060005260206000209081019282156126f4579160200282015b828111156126f35782518255916020019190600101906126d8565b5b5090506127019190612705565b5090565b5b8082111561271e576000816000905550600101612706565b5090565b5b8082111561274257600081816127399190612746565b50600101612723565b5090565b508054612752906130b9565b6000825580601f106127645750612783565b601f0160209004906000526020600020908101906127829190612705565b5b50565b6000604051905090565b600080fd5b600080fd5b60007fffffffff0000000000000000000000000000000000000000000000000000000082169050919050565b6127cf8161279a565b81146127da57600080fd5b50565b6000813590506127ec816127c6565b92915050565b60006020828403121561280857612807612790565b5b6000612816848285016127dd565b91505092915050565b60008115159050919050565b6128348161281f565b82525050565b600060208201905061284f600083018461282b565b92915050565b6000819050919050565b61286881612855565b811461287357600080fd5b50565b6000813590506128858161285f565b92915050565b600080fd5b600080fd5b600080fd5b60008083601f8401126128b0576128af61288b565b5b8235905067ffffffffffffffff8111156128cd576128cc612890565b5b6020830191508360018202830111156128e9576128e8612895565b5b9250929050565b60008060006040848603121561290957612908612790565b5b600061291786828701612876565b935050602084013567ffffffffffffffff81111561293857612937612795565b5b6129448682870161289a565b92509250509250925092565b600081519050919050565b600082825260208201905092915050565b60005b8381101561298a57808201518184015260208101905061296f565b83811115612999576000848401525b50505050565b6000601f19601f8301169050919050565b60006129bb82612950565b6129c5818561295b565b93506129d581856020860161296c565b6129de8161299f565b840191505092915050565b60006020820190508181036000830152612a0381846129b0565b905092915050565b600060208284031215612a2157612a20612790565b5b6000612a2f84828501612876565b91505092915050565b600073ffffffffffffffffffffffffffffffffffffffff82169050919050565b6000612a6382612a38565b9050919050565b612a7381612a58565b82525050565b6000602082019050612a8e6000830184612a6a565b92915050565b612a9d81612a58565b8114612aa857600080fd5b50565b600081359050612aba81612a94565b92915050565b60008060408385031215612ad757612ad6612790565b5b6000612ae585828601612aab565b9250506020612af685828601612876565b9150509250929050565b600080600060608486031215612b1957612b18612790565b5b6000612b2786828701612aab565b9350506020612b3886828701612aab565b9250506040612b4986828701612876565b9150509250925092565b600060208284031215612b6957612b68612790565b5b6000612b7784828501612aab565b91505092915050565b612b8981612855565b82525050565b6000602082019050612ba46000830184612b80565b92915050565b612bb38161281f565b8114612bbe57600080fd5b50565b600081359050612bd081612baa565b92915050565b60008060408385031215612bed57612bec612790565b5b6000612bfb85828601612aab565b9250506020612c0c85828601612bc1565b9150509250929050565b600080fd5b7f4e487b7100000000000000000000000000000000000000000000000000000000600052604160045260246000fd5b612c538261299f565b810181811067ffffffffffffffff82111715612c7257612c71612c1b565b5b80604052505050565b6000612c85612786565b9050612c918282612c4a565b919050565b600067ffffffffffffffff821115612cb157612cb0612c1b565b5b612cba8261299f565b9050602081019050919050565b82818337600083830152505050565b6000612ce9612ce484612c96565b612c7b565b905082815260208101848484011115612d0557612d04612c16565b5b612d10848285612cc7565b509392505050565b600082601f830112612d2d57612d2c61288b565b5b8135612d3d848260208601612cd6565b91505092915050565b60008060008060808587031215612d6057612d5f612790565b5b6000612d6e87828801612aab565b9450506020612d7f87828801612aab565b9350506040612d9087828801612876565b925050606085013567ffffffffffffffff811115612db157612db0612795565b5b612dbd87828801612d18565b91505092959194509250565b6000608082019050612dde6000830187612a6a565b612deb6020830186612b80565b8181036040830152612dfd81856129b0565b90508181036060830152612e1181846129b0565b905095945050505050565b60008060408385031215612e3357612e32612790565b5b6000612e4185828601612aab565b9250506020612e5285828601612aab565b9150509250929050565b600080600080600060608688031215612e7857612e77612790565b5b6000612e8688828901612876565b955050602086013567ffffffffffffffff811115612ea757612ea6612795565b5b612eb38882890161289a565b9450945050604086013567ffffffffffffffff811115612ed657612ed5612795565b5b612ee28882890161289a565b92509250509295509295909350565b60008060008060008060008060a0898b031215612f1157612f10612790565b5b6000612f1f8b828c01612876565b985050602089013567ffffffffffffffff811115612f4057612f3f612795565b5b612f4c8b828c0161289a565b9750975050604089013567ffffffffffffffff811115612f6f57612f6e612795565b5b612f7b8b828c0161289a565b95509550506060612f8e8b828c01612aab565b935050608089013567ffffffffffffffff811115612faf57612fae612795565b5b612fbb8b828c0161289a565b92509250509295985092959890939650565b7f4f776e61626c653a2063616c6c6572206973206e6f7420746865206f776e6572600082015250565b600061300360208361295b565b915061300e82612fcd565b602082019050919050565b6000602082019050818103600083015261303281612ff6565b9050919050565b6000613045838561295b565b9350613052838584612cc7565b61305b8361299f565b840190509392505050565b60006020820190508181036000830152613081818486613039565b90509392505050565b7f4e487b7100000000000000000000000000000000000000000000000000000000600052602260045260246000fd5b600060028204905060018216806130d157607f821691505b602082108114156130e5576130e461308a565b5b50919050565b7f4552433732313a20617070726f76656420717565727920666f72206e6f6e657860008201527f697374656e7420746f6b656e0000000000000000000000000000000000000000602082015250565b6000613147602c8361295b565b9150613152826130eb565b604082019050919050565b600060208201905081810360008301526131768161313a565b9050919050565b7f4552433732313a20617070726f76616c20746f2063757272656e74206f776e6560008201527f7200000000000000000000000000000000000000000000000000000000000000602082015250565b60006131d960218361295b565b91506131e48261317d565b604082019050919050565b60006020820190508181036000830152613208816131cc565b9050919050565b7f4552433732313a20617070726f76652063616c6c6572206973206e6f74206f7760008201527f6e6572206e6f7220617070726f76656420666f7220616c6c0000000000000000602082015250565b600061326b60388361295b565b91506132768261320f565b604082019050919050565b6000602082019050818103600083015261329a8161325e565b9050919050565b7f4552433732313a207472616e736665722063616c6c6572206973206e6f74206f60008201527f776e6572206e6f7220617070726f766564000000000000000000000000000000602082015250565b60006132fd60318361295b565b9150613308826132a1565b604082019050919050565b6000602082019050818103600083015261332c816132f0565b9050919050565b7f4e487b7100000000000000000000000000000000000000000000000000000000600052601160045260246000fd5b600061336d82612855565b91507fffffffffffffffffffffffffffffffffffffffffffffffffffffffffffffffff8214156133a05761339f613333565b5b600182019050919050565b7f4552433732313a206f776e657220717565727920666f72206e6f6e657869737460008201527f656e7420746f6b656e0000000000000000000000000000000000000000000000602082015250565b600061340760298361295b565b9150613412826133ab565b604082019050919050565b60006020820190508181036000830152613436816133fa565b9050919050565b7f4552433732313a2062616c616e636520717565727920666f7220746865207a6560008201527f726f206164647265737300000000000000000000000000000000000000000000602082015250565b6000613499602a8361295b565b91506134a48261343d565b604082019050919050565b600060208201905081810360008301526134c88161348c565b9050919050565b7f45524337323155524953746f726167653a2055524920717565727920666f722060008201527f6e6f6e6578697374656e7420746f6b656e000000000000000000000000000000602082015250565b600061352b60318361295b565b9150613536826134cf565b604082019050919050565b6000602082019050818103600083015261355a8161351e565b9050919050565b600081905092915050565b600061357782612950565b6135818185613561565b935061359181856020860161296c565b80840191505092915050565b60006135a9828561356c565b91506135b5828461356c565b91508190509392505050565b7f4f776e61626c653a206e6577206f776e657220697320746865207a65726f206160008201527f6464726573730000000000000000000000000000000000000000000000000000602082015250565b600061361d60268361295b565b9150613628826135c1565b604082019050919050565b6000602082019050818103600083015261364c81613610565b9050919050565b7f4552433732313a206f70657261746f7220717565727920666f72206e6f6e657860008201527f697374656e7420746f6b656e0000000000000000000000000000000000000000602082015250565b60006136af602c8361295b565b91506136ba82613653565b604082019050919050565b600060208201905081810360008301526136de816136a2565b9050919050565b7f4552433732313a207472616e736665722066726f6d20696e636f72726563742060008201527f6f776e6572000000000000000000000000000000000000000000000000000000602082015250565b600061374160258361295b565b915061374c826136e5565b604082019050919050565b6000602082019050818103600083015261377081613734565b9050919050565b7f4552433732313a207472616e7366657220746f20746865207a65726f2061646460008201527f7265737300000000000000000000000000000000000000000000000000000000602082015250565b60006137d360248361295b565b91506137de82613777565b604082019050919050565b60006020820190508181036000830152613802816137c6565b9050919050565b600061381482612855565b915061381f83612855565b92508282101561383257613831613333565b5b828203905092915050565b600061384882612855565b915061385383612855565b9250827fffffffffffffffffffffffffffffffffffffffffffffffffffffffffffffffff0382111561388857613887613333565b5b828201905092915050565b7f4552433732313a206d696e7420746f20746865207a65726f2061646472657373600082015250565b60006138c960208361295b565b91506138d482613893565b602082019050919050565b600060208201905081810360008301526138f8816138bc565b9050919050565b7f4552433732313a20746f6b656e20616c7265616479206d696e74656400000000600082015250565b6000613935601c8361295b565b9150613940826138ff565b602082019050919050565b6000602082019050818103600083015261396481613928565b9050919050565b7f45524337323155524953746f726167653a2055524920736574206f66206e6f6e60008201527f6578697374656e7420746f6b656e000000000000000000000000000000000000602082015250565b60006139c7602e8361295b565b91506139d28261396b565b604082019050919050565b600060208201905081810360008301526139f6816139ba565b9050919050565b7f4552433732313a20617070726f766520746f2063616c6c657200000000000000600082015250565b6000613a3360198361295b565b9150613a3e826139fd565b602082019050919050565b60006020820190508181036000830152613a6281613a26565b9050919050565b7f4552433732313a207472616e7366657220746f206e6f6e20455243373231526560008201527f63656976657220696d706c656d656e7465720000000000000000000000000000602082015250565b6000613ac560328361295b565b9150613ad082613a69565b604082019050919050565b60006020820190508181036000830152613af481613ab8565b9050919050565b7f4552433732314d657461646174613a2055524920717565727920666f72206e6f60008201527f6e6578697374656e7420746f6b656e0000000000000000000000000000000000602082015250565b6000613b57602f8361295b565b9150613b6282613afb565b604082019050919050565b60006020820190508181036000830152613b8681613b4a565b9050919050565b600081519050919050565b600082825260208201905092915050565b6000613bb482613b8d565b613bbe8185613b98565b9350613bce81856020860161296c565b613bd78161299f565b840191505092915050565b6000608082019050613bf76000830187612a6a565b613c046020830186612a6a565b613c116040830185612b80565b8181036060830152613c238184613ba9565b905095945050505050565b600081519050613c3d816127c6565b92915050565b600060208284031215613c5957613c58612790565b5b6000613c6784828501613c2e565b91505092915050565b7f4e487b7100000000000000000000000000000000000000000000000000000000600052601260045260246000fd5b6000613caa82612855565b9150613cb583612855565b925082613cc557613cc4613c70565b5b828204905092915050565b6000613cdb82612855565b9150613ce683612855565b925082613cf657613cf5613c70565b5b828206905092915050565b7f4e487b7100000000000000000000000000000000000000000000000000000000600052603260045260246000fdfea264697066735822122047c11d08c728fabccc9a1a7b6ac5dc146befcb6a7f468eb7db270c75803ecce364736f6c63430008090033",
  "linkReferences": {},
  "deployedLinkReferences": {}
}